:020000040000fa
:0800000000b004000a0000003a
:020000040000fa
:04000800cab50a006b
:020000040000fa
:04000c00cab50a0067
:020000040000fa
:04001000cab50a0063
:020000040000fa
:04001400cab50a005f
:020000040000fa
:04001800cab50a005b
:020000040000fa
:04001c00cab50a0057
:020000040000fa
:04002000cab50a0053
:020000040000fa
:04002400cab50a004f
:020000040000fa
:04002800cab50a004b
:020000040000fa
:04002c00cab50a0047
:020000040000fa
:04003000cab50a0043
:020000040000fa
:04003400cab50a003f
:020000040000fa
:04003800cab50a003b
:020000040000fa
:04003c00cab50a0037
:020000040000fa
:04004000cab50a0033
:020000040000fa
:04004400cab50a002f
:020000040000fa
:04004800cab50a002b
:020000040000fa
:04004c00cab50a0027
:020000040000fa
:04005000cab50a0023
:020000040000fa
:04005400cab50a001f
:020000040000fa
:04005800cab50a001b
:020000040000fa
:04005c00cab50a0017
:020000040000fa
:04006000cab50a0013
:020000040000fa
:04006400cab50a000f
:020000040000fa
:04006800cab50a000b
:020000040000fa
:04006c00cab50a0007
:020000040000fa
:04007000cab50a0003
:020000040000fa
:04007400cab50a00ff
:020000040000fa
:04007800cab50a00fb
:020000040000fa
:04007c00cab50a00f7
:020000040000fa
:04008000cab50a00f3
:020000040000fa
:04008400cab50a00ef
:020000040000fa
:04008800cab50a00eb
:020000040000fa
:04008c00cab50a00e7
:020000040000fa
:04009000cab50a00e3
:020000040000fa
:04009400cab50a00df
:020000040000fa
:04009800cab50a00db
:020000040000fa
:04009c00cab50a00d7
:020000040000fa
:0400a000cab50a00d3
:020000040000fa
:0400a400cab50a00cf
:020000040000fa
:0400a800cab50a00cb
:020000040000fa
:0400ac00cab50a00c7
:020000040000fa
:0400b000cab50a00c3
:020000040000fa
:0400b400cab50a00bf
:020000040000fa
:0400b800cab50a00bb
:020000040000fa
:0400bc00cab50a00b7
:020000040000fa
:0400c000cab50a00b3
:020000040000fa
:0400c400cab50a00af
:020000040000fa
:0400c800cab50a00ab
:020000040000fa
:0400cc00cab50a00a7
:020000040000fa
:0400d000cab50a00a3
:020000040000fa
:0400d400cab50a009f
:020000040000fa
:0400d800cab50a009b
:020000040000fa
:0400dc00cab50a0097
:020000040000fa
:0400e000cab50a0093
:020000040000fa
:0400e400cab50a008f
:020000040000fa
:0400e800cab50a008b
:020000040000fa
:0400ec00cab50a0087
:020000040000fa
:0400f000cab50a0083
:020000040000fa
:0400f400cab50a007f
:020000040000fa
:0400f800cab50a007b
:020000040000fa
:0400fc00cab50a0077
:020000040000fa
:04010000cab50a0072
:020000040000fa
:04010400cab50a006e
:020000040000fa
:04010800cab50a006a
:020000040000fa
:04010c00cab50a0066
:020000040000fa
:04011000cab50a0062
:020000040000fa
:04011400cab50a005e
:020000040000fa
:04011800cab50a005a
:020000040000fa
:04011c00cab50a0056
:020000040000fa
:04012000cab50a0052
:020000040000fa
:04012400cab50a004e
:020000040000fa
:04012800cab50a004a
:020000040000fa
:04012c00cab50a0046
:020000040000fa
:04013000cab50a0042
:020000040000fa
:04013400cab50a003e
:020000040000fa
:04013800cab50a003a
:020000040000fa
:04013c00cab50a0036
:020000040000fa
:04014000cab50a0032
:020000040000fa
:04014400cab50a002e
:020000040000fa
:04014800cab50a002a
:020000040000fa
:04014c00cab50a0026
:020000040000fa
:04015000cab50a0022
:020000040000fa
:04015400cab50a001e
:020000040000fa
:04015800cab50a001a
:020000040000fa
:04015c00cab50a0016
:020000040000fa
:04016000cab50a0012
:020000040000fa
:04016400cab50a000e
:020000040000fa
:04016800cab50a000a
:020000040000fa
:04016c00cab50a0006
:020000040000fa
:04017000cab50a0002
:020000040000fa
:04017400cab50a00fe
:020000040000fa
:04017800cab50a00fa
:020000040000fa
:04017c00cab50a00f6
:020000040000fa
:04018000cab50a00f2
:020000040000fa
:04018400cab50a00ee
:020000040000fa
:04018800cab50a00ea
:020000040000fa
:04018c00cab50a00e6
:020000040000fa
:04019000cab50a00e2
:020000040000fa
:04019400cab50a00de
:020000040000fa
:04019800cab50a00da
:020000040000fa
:04019c00cab50a00d6
:020000040000fa
:0401a000cab50a00d2
:020000040000fa
:0401a400cab50a00ce
:020000040000fa
:0401a800cab50a00ca
:020000040000fa
:0401ac00cab50a00c6
:020000040000fa
:0401b000cab50a00c2
:020000040000fa
:0401b400cab50a00be
:020000040000fa
:0401b800cab50a00ba
:020000040000fa
:0401bc00cab50a00b6
:020000040000fa
:0401c000cab50a00b2
:020000040000fa
:0401c400cab50a00ae
:020000040000fa
:0401c800cab50a00aa
:020000040000fa
:0401cc00cab50a00a6
:020000040000fa
:0401d000cab50a00a2
:020000040000fa
:0401d400cab50a009e
:020000040000fa
:0401d800cab50a009a
:020000040000fa
:0401dc00cab50a0096
:020000040000fa
:0401e000cab50a0092
:020000040000fa
:0401e400cab50a008e
:020000040000fa
:0401e800cab50a008a
:020000040000fa
:0401ec00cab50a0086
:020000040000fa
:0401f000cab50a0082
:020000040000fa
:0401f400cab50a007e
:020000040000fa
:0401f800cab50a007a
:020000040000fa
:0401fc00cab50a0076
:020000040000fa
:020000040015e5
:106000004f9020000eff27000e01880000000000c6
:10601000000020000000e00002003200000120002b
:106020002002880014000700e80207000000e000da
:1060300003003a0000752b00a10020000200370089
:106040000000200001002000810f700001003200dc
:1060500014000700000020000000e00002003200f1
:10606000000002000000000004b102000a0000006d
:106070000040da000000fe004440a900600120005a
:106080000000e00003003200502120009001880051
:106090004440a800000006008a1f78008b1f78008b
:1060a00000000600a1028800800478000000eb00d8
:1060b0001f003700e284440054a0b4009905ba00e0
:1060c000e284440054a0b4009906ba00e28444007b
:1060d00054a0b4000006eb00476fde00fd07b200dd
:1060e000ae018800636ce10003003a00eaff07009c
:1060f0000000eb000e003700606ce10008003a0081
:10610000004deb000a05e800020039003420ec00e5
:106110000af0a0008b05e900f9ff3e0004003700fb
:106120006168e100010032000086eb000b0007000f
:1061300019c7ba001905ba000e04e00003003a00be
:106140000a00e000dbff3a0000000600fe07b20094
:10615000ae0288008a047800f5ff37000cd0a30057
:10616000e20f4d001c00390089027800354dba005d
:106170000a05e800020039003420ec000af0a00013
:106180008b05e9000f003200254dba000a05e80032
:10619000020039003420ec000af0a0008b05e90071
:1061a000080032000c00e0000600320015cdba00f5
:1061b0000a05e800020039003420ec000af0a000d3
:1061c0008b05e9008984e80054a0b4000b00e000ce
:1061d000e2ff3a00000006009902ba00055d78006f
:1061e0008b05e900f7ff3200c82ade00055d780064
:1061f0008b05e900f3ff32000c00e000f1ff3200f4
:1062000019ddba00eeff3700889fbe001b000700b3
:106210006600070008402000f9c7b30078000700b7
:106220000004e0000c003a000008200001002000fb
:106230000000000061005000e0805800fcff3a00c0
:106240000804e900f5ff3a000010200001002000da
:1062500000400100ffff37005d000700894f50003c
:10626000f7ff3a0090c7b300600007001b0107006a
:106270000804e900e9ff3a00f3ff37006626ef0063
:106280007a26ef008e26ef00a226ef00b626ef005a
:10629000ca26ef00de26ef00f06f2c0010338800d6
:1062a0000080eb00b0338800e10127005134880002
:1062b000f0348800f03f200090358800f01d230066
:1062c00030368800f03c2f00d03688007426ef006e
:1062d0008826ef009c26ef00b026ef00c426ef00d2
:1062e000d826ef00ec26ef007226ef008626ef009e
:1062f0009a26ef00ae26ef00c226ef00d626ef006a
:10630000ea26ef006826ef007c26ef009026ef00db
:10631000a426ef00b826ef00cc26ef00e026ef0021
:10632000006c200050338800c0ff2f00f03388003d
:106330000001220090348800000c200030358800d5
:1063400000212000d0358800003c20001037880054
:10635000f00b20000001b60061042000720520004f
:106360000310200081497800824978008049780034
:10637000f00f2800e407b6000030b300203f88008b
:1063800000fc2f00b407b600a000b300a03d8800b9
:10639000000880000060a000031020008149780000
:1063a00082497800804978000000060080002000c3
:1063b000c01c88009a23ef0070062000001d880092
:1063c000a223ef0099e3a8009b43a8000000060069
:1063d0009a03ab00feff32009a23ab0001003200ab
:1063e0009a23a900f01c8000000006009b23ab004c
:1063f000feff3a000080fb00e01c88000000060061
:10640000d01c800061406000000006000040eb00ee
:106410009b03ab0004003200004020009a03b6004a
:106420000000ea004f00de0000000600d01c8000e3
:106430004800de006140600000000600889fbe004a
:106440006000b800fe0107000004be00200020002c
:1064500001002000fa0107006000b80005020700f3
:10646000804078000040eb000104e00002003a00a8
:106470004f04be00000006000802be000801be0076
:106480006000b8000d0207004f04be0000000600c7
:10649000f9ff37000c00fa00889fbe008a9fbe00fb
:1064a0008c9fbe0090c7b3008e01070051002000f2
:1064b000008020009d01070008802000984178009e
:1064c0000800e800104178000880e80010407800db
:1064d000e3004400914078000342690000426a00f2
:1064e00001426a00e4024400954f120007003200a6
:1064f000f0c1b3007b0107004f06be004f05be0090
:106500004f04be000080fa0000000600c81ddd0038
:106510000a0020008281fb000200200002017500b9
:10652000838175000182fb008002eb000401710091
:10653000858171000080fb008000eb00480add00cf
:10654000c802de00850272004802dd000405710009
:106550008585710064015500e0815d0000f02a002e
:10656000a1002000800f5100818f5900e0ff3e0004
:1065700090c7b3005b0107001100200008007800fd
:106580006a010700984678008d84fb000906e80040
:1065900067006600d6ff3a008980e80008007800ae
:1065a000620107000800e90088844400d0c66e003c
:1065b000890f5000fdff3a0068407e008d4f50006b
:1065c000cbff3a0050052000a10a200081010700fe
:1065d000298020008006eb00494290008482fb0065
:1065e00004002000394190000281fb008001eb0093
:1065f0004818dd00c810de00810070004810dd0082
:106600000002720081827200294090000080fb002d
:106610008000eb001981fb008001eb00c013dd005e
:1066200006002000e6b79f00f7b79f0079f99700b2
:106630000283fb008003eb004839dd00c831de0037
:10664000830171004831dd0082bf9f0093bf9f002e
:106650006fb39700ffb39700020373008383730047
:10666000c6b79f00d7b79f0068c37e000681fb00b6
:106670008001eb004fb39700dfb397000201730076
:106680008381730000027200818272000a00be00e2
:106690008a0107000004e00095ff3200e88646000a
:1066a000e88444008d0f5600030036006405450061
:1066b000e0854d00c8ff37004b01070090c7b300cd
:1066c000080107004f06be004f05be004f04be0084
:1066d0000080fa00000006008cff3700e6874700c4
:1066e000889fbe008a9fbe008c9fbe008e1f7800d0
:1066f0000b8020000b05e8000a077800210020002d
:106700000080200009010700088020001b4078005d
:1067100080c0ea009acf100011003a000004e000a7
:106720003e003200e14f500049003200e24f50007d
:106730004f00320011c2b300814f500054003200ac
:10674000f14f50007900320011c3b300814f500067
:10675000c400320031c4b300814f50000300320046
:10676000f0c1b300df000700e4ff370090c7b300bb
:10677000dc0007001100200008007800eb00070093
:1067800018407800e14f4000b80032000080fb0064
:106790000006e8008c00780008007800e30007009d
:1067a00090c7b300cf00070050052000a10a2000c9
:1067b000080107000c00e00014003200f97f2000ff
:1067c0000004eb00594078000004e0001b00320098
:1067d0004b00dd00cf80de0064015000e0815800f6
:1067e00004f02a00a5002000840f5100858f590075
:1067f000dbff3e001f0107000004e000d8ff32006d
:106800000804e800880f5600eeff3e00f60007007f
:1068100090c7b300b3000700b8ff370090c7b300bc
:10682000b0000700d100200020762b00af00070049
:1068300090c7b300ab000700b0ff3700fffe0700b2
:106840000804e800880f5600deff3e00efff370027
:1068500090c7b300a30007003100200000772b0091
:10686000a200070090c7b3009e000700a3ff3700f7
:1068700090c7b3009b0007003100200040772b0039
:106880009a00070090c7b300960007009bff3700ef
:1068900090c7b30093000700510020000800780063
:1068a000a2000700984678001e467800208020004d
:1068b000104478008000e800914478000d406e009c
:1068c00008406800094068000102e800944f500049
:1068d000a3ff3a0090c7b30082000700c869dd003b
:1068e000020020008c80fb000000200000007100ee
:1068f000818071000981fb008001eb0002007000c3
:10690000838070000884fb008004eb004849dd00b0
:10691000c841de00830171004841dd0002007000c3
:10692000838070000040010074ff370090c7b300ff
:106930006c00070051002000080078007b00070071
:10694000984178001e41780025802000154078008d
:106950000502e800944078000342690000426a00a2
:1069600001426a008582e800954f52007cff3a00a0
:10697000c81add00040020008281fb000200200014
:1069800002017200838172000182fb008002eb0031
:1069900004017100858171000080fb008000eb0024
:1069a000480add00c802de00850272004802dd00f0
:1069b000040671008586710090c7b3004900070086
:1069c00021002000080078005800070018407800d7
:1069d00080c0ea009ecf500061ff3a000080fb00bb
:1069e0008004e800638064005dff3a0090c7b30054
:1069f0003c000700c2ccde0040ff32000004eb0088
:106a0000080044000c004000e0804e008c000700ad
:106a1000f0b79f0081bf9f004100200072805700a7
:106a2000320007000804e800890f540033ff3100ea
:106a3000080044000c004000e0804e008000070089
:106a4000f0b79f0081bf9f00410020007280570077
:106a5000260007000804e800890f5400e8ff390009
:106a600026ff37008bfe070024ff370011002000af
:106a7000080078002d00070050052000a10a200022
:106a8000540007006dfe0700088020000900200068
:106a90000c002b00ad0020000800be0075000700b0
:106aa0000080200001002000080440008984480084
:106ab0008c0f54008d8f5c0054ff32000800be0024
:106ac0006c00070000802000010020000804400046
:106ad000898448008c0f54008d8f5c00eeff3a00d3
:106ae0004aff370041fe370039fe3700889fbe005d
:106af0008a1f7800010578000a00e00007003200d4
:106b0000800478000004eb003940780037fe07006d
:106b10000804e800880f5500fbff3e000a007800db
:106b20004f0578004f04be0000000600889fbe009d
:106b30008a1f7800010578000a00e0000700320093
:106b4000800478000004eb0021fe0700805c7800e0
:106b50000804e800880f5500fbff3e000a0078009b
:106b60004f0578004f04be000000060090417800f9
:106b7000e18f50000500360012002000d0c16900ee
:106b80000201e800810f5100fcff3a000340780049
:106b9000000006000040da000000fe00020078005d
:106ba0000000e000080032008001780031427800e7
:106bb0009b23ab00feff3a000482fb00e41c88002c
:106bc0008301e900f9ff3a0000000600000005001b
:020000040000fa
:020000040015e5
:106bd0000000fe00029020000019780001097800f2
:106be000000006000000fe000000eb008000eb004b
:106bf000f8ff07006627ef00000006000000fe0017
:106c00000000fe00801f7800811f780001902000a6
:106c10000600fc0031007800303b8800110078004d
:106c2000303b880061e7a800000000000000000081
:106c3000cf0078004f007800000006000000fe0042
:106c4000a2028000a10288009080ba001000ba0061
:106c5000a2028800000006000000fe00a2028000e0
:106c6000a10288001000ba00a202880000000600fd
:106c70000000fe0061e7af00feff3700f27f20005a
:106c8000000161000a003a0032002400023b880043
:106c9000103b8800213b880002b602000a00000079
:106ca00061e7af00feff37001000200061a7af00d2
:106cb00000002000000006000000fe0061e7af00b9
:106cc000feff37000000a700150037000010a700e6
:106cd00013003700213b8800103b8800100024007f
:106ce000003b8800a0028000a10f2000a1028800c4
:106cf000010020008208bb008398bb008408bb0011
:106d00008598bb0002b602000a00000061e7af00f0
:106d1000feff3700a00288001000200061a7af002e
:106d200000002000000006000000fe0061e7af0048
:106d3000feff37000000a700160037000010a70074
:106d400014003700213b8800103b8800a10280001e
:106d500010002400003b8800a00f2000a002880043
:106d6000000020000208bb00f20f20000298bb00c8
:106d70000308bb000298bb0002b602000a00000034
:106d800061e7af00feff3700a1028800100020007d
:106d900061a7af0000002000000006000000fe0018
:106da00061e7af00feff3700f30f20008081610034
:106db00014003a00103b8800213b8800a1028000ab
:106dc000a00f2000a002880020002400003b8800c3
:106dd00000002000031020003208bb003298bb00e6
:106de0000018e100fcff3a0002b602000a000000b1
:106df00061e7af00feff3700a1028800100020000d
:106e000061a7af0000002000000006000000fe00a7
:106e100061e7af00feff3700f30f200080816100c3
:106e200015003a00103b8800213b8800a102800039
:106e3000a00f2000a002880020002400003b880052
:106e40000000200003102000f40f20003208bb00d7
:106e50000498bb000018e100fcff3a0002b60200f3
:106e60000a00000061e7af00feff3700a1028800c2
:106e70001000200061a7af00000020000000060005
:106e8000f27f2000000061000000060002802f0059
:106e900000006100f2ff2f00810061000000060089
:020000040000fa
:020000040015e5
:106ea000000900000400000082000000ffffff0056
:106eb000ff0000000008000000010000800000004a
:046ec00000000000ce
:020000040000fa
:020000040015e5
:106ec4000b0100000001000002110000213100004c
:106ed4004363000073820000920000000100000080
:0c6ee4000000000001040000ef000000ae
:020000040000fa
:020000040015e5
:047e0000fdff000082
:020000040000fa
:020000040015e5
:047e2000fa1f000045
:020000040000fa
:020000040015e5
:047e3000faffff0056
:020000040000fa
:020000040015e5
:047e3800bdffff008b
:020000040000fa
:020000040015e5
:047e40009fffff00a1
:020000040000fa
:020000040015e5
:047e4800fcffff003c
:020000040000fa
:020000040015e5
:047e5000dfffff0051
:020000040000fa
:020000040015e5
:047e5800ffffff0029
:00000001FF
