:020000040000fa
:080000000001040000000000f3
:020000040000fa
:0400080010020000e2
:020000040000fa
:04000c0010020000de
:020000040000fa
:0400100010020000da
:020000040000fa
:0400140010020000d6
:020000040000fa
:0400180010020000d2
:020000040000fa
:04001c0010020000ce
:020000040000fa
:0400200010020000ca
:020000040000fa
:0400240010020000c6
:020000040000fa
:0400280010020000c2
:020000040000fa
:04002c0010020000be
:020000040000fa
:0400300010020000ba
:020000040000fa
:0400340010020000b6
:020000040000fa
:0400380010020000b2
:020000040000fa
:04003c0010020000ae
:020000040000fa
:0400400010020000aa
:020000040000fa
:0400440010020000a6
:020000040000fa
:0400480010020000a2
:020000040000fa
:04004c00100200009e
:020000040000fa
:04005000100200009a
:020000040000fa
:040054001002000096
:020000040000fa
:040058001002000092
:020000040000fa
:04005c00100200008e
:020000040000fa
:04006000100200008a
:020000040000fa
:040064001002000086
:020000040000fa
:040068001002000082
:020000040000fa
:04006c00100200007e
:020000040000fa
:04007000100200007a
:020000040000fa
:040074001002000076
:020000040000fa
:040078001002000072
:020000040000fa
:04007c00100200006e
:020000040000fa
:04008000100200006a
:020000040000fa
:040084001002000066
:020000040000fa
:040088001002000062
:020000040000fa
:04008c00100200005e
:020000040000fa
:04009000100200005a
:020000040000fa
:040094001002000056
:020000040000fa
:040098001002000052
:020000040000fa
:04009c00100200004e
:020000040000fa
:0400a000100200004a
:020000040000fa
:0400a4001002000046
:020000040000fa
:0400a8001002000042
:020000040000fa
:0400ac00100200003e
:020000040000fa
:0400b000100200003a
:020000040000fa
:0400b4001002000036
:020000040000fa
:0400b8001002000032
:020000040000fa
:0400bc00100200002e
:020000040000fa
:0400c000100200002a
:020000040000fa
:0400c4001002000026
:020000040000fa
:0400c8001002000022
:020000040000fa
:0400cc00100200001e
:020000040000fa
:0400d000100200001a
:020000040000fa
:0400d4001002000016
:020000040000fa
:0400d8001002000012
:020000040000fa
:0400dc00100200000e
:020000040000fa
:0400e000100200000a
:020000040000fa
:0400e4001002000006
:020000040000fa
:0400e8001002000002
:020000040000fa
:0400ec0010020000fe
:020000040000fa
:0400f00010020000fa
:020000040000fa
:0400f40010020000f6
:020000040000fa
:0400f80010020000f2
:020000040000fa
:0400fc0010020000ee
:020000040000fa
:0401000010020000e9
:020000040000fa
:0401040010020000e5
:020000040000fa
:0401080010020000e1
:020000040000fa
:04010c0010020000dd
:020000040000fa
:0401100010020000d9
:020000040000fa
:0401140010020000d5
:020000040000fa
:0401180010020000d1
:020000040000fa
:04011c0010020000cd
:020000040000fa
:0401200010020000c9
:020000040000fa
:0401240010020000c5
:020000040000fa
:0401280010020000c1
:020000040000fa
:04012c0010020000bd
:020000040000fa
:0401300010020000b9
:020000040000fa
:0401340010020000b5
:020000040000fa
:0401380010020000b1
:020000040000fa
:04013c0010020000ad
:020000040000fa
:0401400010020000a9
:020000040000fa
:0401440010020000a5
:020000040000fa
:0401480010020000a1
:020000040000fa
:04014c00100200009d
:020000040000fa
:040150001002000099
:020000040000fa
:040154001002000095
:020000040000fa
:040158001002000091
:020000040000fa
:04015c00100200008d
:020000040000fa
:040160001002000089
:020000040000fa
:040164001002000085
:020000040000fa
:040168001002000081
:020000040000fa
:04016c00100200007d
:020000040000fa
:040170001002000079
:020000040000fa
:040174001002000075
:020000040000fa
:040178001002000071
:020000040000fa
:04017c00100200006d
:020000040000fa
:040180001002000069
:020000040000fa
:040184001002000065
:020000040000fa
:040188001002000061
:020000040000fa
:04018c00100200005d
:020000040000fa
:040190001002000059
:020000040000fa
:040194001002000055
:020000040000fa
:040198001002000051
:020000040000fa
:04019c00100200004d
:020000040000fa
:0401a0001002000049
:020000040000fa
:0401a4001002000045
:020000040000fa
:0401a8001002000041
:020000040000fa
:0401ac00100200003d
:020000040000fa
:0401b0001002000039
:020000040000fa
:0401b4001002000035
:020000040000fa
:0401b8001002000031
:020000040000fa
:0401bc00100200002d
:020000040000fa
:0401c0001002000029
:020000040000fa
:0401c4001002000025
:020000040000fa
:0401c8001002000021
:020000040000fa
:0401cc00100200001d
:020000040000fa
:0401d0001002000019
:020000040000fa
:0401d4001002000015
:020000040000fa
:0401d8001002000011
:020000040000fa
:0401dc00100200000d
:020000040000fa
:0401e0001002000009
:020000040000fa
:0401e4001002000005
:020000040000fa
:0401e8001002000001
:020000040000fa
:0401ec0010020000fd
:020000040000fa
:0401f00010020000f9
:020000040000fa
:0401f40010020000f5
:020000040000fa
:0401f80010020000f1
:020000040000fa
:0401fc0010020000ed
:020000040000fa
:10020000ef8a20000eff27000e018800000000008a
:10021000000020000000e000020032000001200089
:100220002002880014000700bc0007000000e00066
:1002300003003a0060ec20000100200002003700bb
:100240000000200001002000810f7000010032003a
:1002500014000700000020000000e000020032004f
:1002600000000200000000007e0f020000000000fd
:100270000040da000000fe004440a90040022000d7
:100280000000e00003003200002020009001880000
:100290004440a800000006008a1f78008b1f7800e9
:1002a00000000600a1028800800478000000eb0036
:1002b0001f003700e284440054a0b4009905ba003e
:1002c000e284440054a0b4009906ba00e2844400d9
:1002d00054a0b4000006eb00476fde00fd07b2003b
:1002e000ae018800636ce10003003a00eaff0700fa
:1002f0000000eb000e003700606ce10008003a00df
:10030000004deb000a05e800020039003420ec0043
:100310000af0a0008b05e900f9ff3e000400370059
:100320006168e100010032000086eb000b0007006d
:1003300019c7ba001905ba000e04e00003003a001c
:100340000a00e000dbff3a0000000600fe07b200f2
:10035000ae0288008a047800f5ff37000cd0a300b5
:10036000e20f4d001c00390089027800354dba00bb
:100370000a05e800020039003420ec000af0a00071
:100380008b05e9000f003200254dba000a05e80090
:10039000020039003420ec000af0a0008b05e900cf
:1003a000080032000c00e0000600320015cdba0053
:1003b0000a05e800020039003420ec000af0a00031
:1003c0008b05e9008984e80054a0b4000b00e0002c
:1003d000e2ff3a00000006009902ba00055d7800cd
:1003e0008b05e900f7ff3200c82ade00055d7800c2
:1003f0008b05e900f3ff32000c00e000f1ff320052
:1004000019ddba00eeff37005a05040000000000b5
:10041000000004000000000092050400000000003d
:100420000040da000000fe000a00fa00110020007f
:10043000b1bf9f00c0bf9f006a80570071040700d2
:100440004fb897000080fa00000006000a00fa008a
:1004500051002000b1bf9f00c0bf9f006a805700bd
:100460006a0407005fb897000080fa0000000600e9
:10047000889fbe0080047800604580000000e00096
:1004800004003a000e0007000084eb000000e000ca
:1004900008003500684580000900e00005003200d2
:1004a00009004400060007000000e00001003d00d4
:1004b0000084eb00080078004f04be000000060036
:1004c000800078000100e00003003a0000002000f6
:1004d00060458800000005000080eb00020020005d
:1004e000828f500002003e00614588000000eb0052
:1004f000000006000600fa00000f780011079800bf
:10050000220798001e009000ae009000c204070071
:100510002e0090000080fa00000006000000050098
:10052000a18220006a000700800078000080eb00b4
:100530000100e00004003500a1822000a00020009e
:10054000020007004f80de0000000600889fbe000a
:100550008a1f78000004be00c90090006900900066
:10056000808f50000500390009007800b7000700af
:100570008080eb000000e0001600350008457800a0
:100580004900900008587800c004980019007800cd
:1005900000b8a30004003a0000a8a300070032003e
:1005a000ea4f540005003a00090078000d000700ea
:1005b0008080eb000000e00006003a0000c0200050
:1005c000190060000200320049009000e004980029
:1005d0008a80fb00010078004f0578004f04be00c0
:1005e00000000600889fbe008a1f78000004780083
:1005f0000800e0000d003a008887200070054400e4
:100600008004eb00580078000000e0000400320095
:10061000f4ff07000000e00001003d008084eb00d3
:100620008a0f5400f7ff3a0025003700000022002f
:10063000180060008004eb0021003200a804900044
:100640000f00370009015100384090000000fb0006
:1006500089007800a7ff07000000e00007003c00c9
:10066000280090004004980060049800500c980006
:100670001890a0008084eb001100370080844400b3
:1006800048019000828f5400eeff3900280090004e
:10069000400498009800780002c0200002816000a9
:1006a00001003a003800900001e8a3000200320087
:1006b0006004980001003700500c98008004eb00a3
:1006c000090078004f0578004f04be0000000600c6
:1006d000889fbe008a9fbe008004780001047800d5
:1006e0002c003700c800900068009000808f5000f8
:1006f0000400390008007800540007000000e00002
:10070000370035000040200018006000090032006a
:10071000a100200009007800420007008005780051
:100720000b00e00003003200618514000a854500db
:100730000400370009007800340007000005780045
:100740008005eb0048009000e80090008080500099
:100750008a8f500002003100010578008005eb000f
:100760000a01780089007800210007004800900005
:100770000a004000400498000b00e0000400320032
:100780000800780097ff07000000e00014003a001e
:100790008a8444001904e000d2ff3a00008020005f
:1007a0001800600006003200080078008dff070086
:1007b000800078000080eb000100e00009003a00b2
:1007c00001c02000988060000000eb0005003200ae
:1007d00048009000600498000000eb000100370022
:1007e0000080eb004f05be004f04be000000060075
:1007f0008001780002003700b15978000201e90059
:100800000200e000fcff3a000000060080007800d3
:10081000010178003104e000fdff3a0000005100c2
:10082000000006000001eb0000027800b0417800f3
:1008300081cf510001003a00040178000304e00078
:10084000f9ff3a000200780000000600889fbe0011
:100850008a1f780000047800c800900068019000aa
:100860000000eb00828f50003c0039001800780037
:100870002200290002016000e20f5100070032004f
:10088000012024000000e00001003d0001202000c4
:10089000008c70000080eb00300037000200260062
:1008a00002006000820f500009003a0038009000fa
:1008b000808f5000060039000800780049ff0700cb
:1008c000800078000080eb000100e00023003a0087
:1008d0001805780000c020000000650018003a00ec
:1008e000a80490006002200008004000808f54009f
:1008f00013003a00002020003a020700200498006c
:100900000000e00005003a0029049800490498001e
:100910008904e80039049800080037000a60a00044
:100920000a0c7800400498000120200080804000dc
:1009300031049800400c9800500c98000c000700ff
:10094000280090005004980038009000600498003f
:1009500000002600180c70000000eb004f05780026
:100960004f04be0000000600a055200061003700c3
:10097000881f7800888a20001804e00003003a00ed
:10098000f9ff070020c0b300004c78004f04780046
:1009900000000600889fbe00000478000800780070
:1009a00010ff070080047800000420001800600099
:1009b0000200320028009000510107000000eb0007
:1009c00020049800384090000004e0000500350045
:1009d0000000fb0094fe07000000e0000100320070
:1009e0008084eb00181090000000e0000800320046
:1009f00096fe07000000e000010032008084eb005a
:100a0000181090003e0107000000eb001014980041
:100a10000008200018006000150032000001eb0003
:100a20006000b800a38720000202d00063027a00b1
:100a3000880f520005003a00000040008180480005
:100a4000008041000008eb00060037006100400014
:100a5000e08048000201e800e80f5000e08f5800f5
:100a6000f0ff3a0008007800250107000e0037006b
:100a7000000c780000c0eb003044980060022000b9
:100a8000080040002004980040049800500498009a
:100a9000400c980060049800500c98007004980076
:100aa00076004400000c9800090078004f04be0056
:100ab00000000600881f78000004eb006140b800c9
:100ac000e2ff2f00f3ff2f00d202070082882000f0
:100ad000620078000000e00001003200adff070076
:100ae0000804e800e80f5400f4ff3a004f047800cf
:100af00000000600010020000100e00008003200b4
:100b0000010080000100e000050032008100e900e2
:100b1000010088008100d0000200800000b1780050
:100b200000000600889fbe000004780001007800e5
:100b30008204780088017800090178001100200003
:100b400021010700890f5000010032000004eb0072
:100b5000080078004f04be00000006000000fa0004
:100b6000e88157004fb99700a1822000205920004a
:100b7000020007000080fa00000006006200fa0090
:100b8000889fbe008a1f78000005780081047800e5
:100b9000020478008300780080f92f000f004000e5
:100ba000960207009a979f00a9979f000000eb000c
:100bb000b09f9f001885fb008a04fb000a05ea002d
:100bc0004f55de0050022000808f54000d0032008f
:100bd000e10f55000b003a000a0178008800780008
:100be0002f9097009f91970003000100a0979f000e
:100bf0000000e0008e0032003f9897000000e800ff
:100c0000b09f9f000a04440050022000808f5400cf
:100c1000040032000900e000e6ff3a003f98970028
:100c2000840037000000eb00909f9f00809f9f0092
:100c3000f0979f00e0979f00d0979f00c0979f007c
:100c400007003700e189200001005000000040004b
:100c50002189200061007800df9897000100700072
:100c6000d09f9f00880478000904780038457800f8
:100c70008a00fb00e08920008e0107000000e000f0
:100c8000f0ff3a00a1c2b300814f55000e003a00b8
:100c9000cf8897000180e900c08f9f001000780086
:100ca000c09f9f000000e00005003d000000ea003a
:100cb000c09f9f005f9897000020a000d09f9f00da
:100cc0000904e8000f003700c09f9f000000eb0000
:100cd00005003700f2ff2700820f500002003200ab
:100ce0006a01b90002804000090478008804780095
:100cf000b900fb000103b100e98f5000f5ff360099
:100d0000c09f9f00e0c2b300984f10000200320065
:100d10000080eb0019003700a0c2b300d84f1000cc
:100d200007003a00cf8897000180e900c08f9f003c
:100d300010007800a09f9f000804e8001000370012
:100d40000000eb00a09f9f0088007800050037009e
:100d5000f3ff2700830f5000020032006a02b9003f
:100d60000400410001047800880078003101fb0094
:100d70000203b100e90f5100f5ff3600a09f9f006c
:100d8000984478008900fb00a088200049010700f2
:100d90000000e000020032000804e8000100370013
:100da0008044eb00c97f9f0080c6b30080cf540011
:100db00004003a0098cf14000a003a006640500040
:100dc00006003700c0c6b30080cf540005003a00cb
:100dd00098cf140003003a0065404000c07f9f0098
:100de0000804e8001801fb00e3fb2f008f8141009d
:100df00081f92f008f804000a0f92f000f004000e4
:100e0000100007000000e00009003a00e1fb2f009d
:100e10008f804000a0f92f000f0040003b01070029
:100e20000000e000020035000804e80061ff370020
:100e30000080eb004f0578004f04be000080fa00f0
:100e400000000600889fbe008a1f7800000478001a
:100e500030c5b300804f51000800320030c7b300e6
:100e6000804f51000500320051c2b300780090005d
:100e7000814f510017003a00140037001180e9003b
:100e800080087800100578006a049800d80c90005b
:100e90000900e00004003d000a0078005bfe070046
:100ea0008004780007003700090178008000eb001b
:100eb0000a007800f50007000000e00001003200a1
:100ec0008a045000190c98000900370082717800dc
:100ed00005003700808141000204e00001003a0073
:100ee00001417800824978000000e8007004980011
:100ef0000000eb004f0578004f04be000000060024
:100f00000000e0002f003200c0017800e38f5100a4
:100f10002c0036000308a3002a003a003145800067
:100f20000100e00002003200810f50000400310097
:100f300011009800304588001600370082007800c4
:100f4000110190000200e00002003200800f510009
:100f5000faff39001102780084824000850f5000aa
:100f600018003900808f520003003a0083084200c5
:100f700001007800070037000200e00003003200a3
:100f800083014000830f51000e00390012009800c9
:100f900090009800900090000100e00009003200ed
:100fa00010014000828f500006003a00428a200063
:100fb0000009eb0010017800110841009100900039
:100fc0001100980000000600889fbe008a9fbe00a6
:100fd0008c9fbe008e1f7800000678000104780008
:100fe00002007800830478000881b90002077800c5
:100ff0000200e000420032000800e0004100320040
:1010000082057800c900900069009000808f500030
:1010100004003900090078000cfe07000000e00021
:101020002900350000402000190060000a0032004d
:101030000b017800a10020000c007800930007004d
:10104000800678000d00e000060032006105160001
:101050000a854600040037000b0578008006eb0087
:10106000010037000b05780049009000e90090006e
:10107000808050008a8f5000020031000105780006
:101080008006eb000a0178008c007800d8fd07008c
:101090008a855500490090000a004000c00498006d
:1010a0000d00e00004003200090078004dfd07004b
:1010b0000000e00004003a000b00e00002003200f3
:1010c0000a064600cfff37000080200019006000ac
:1010d000020032000900780042fd070000c0200035
:1010e000190060000200320049009000e0049800fe
:1010f0008b055700110009008885d80001003700d2
:101100000000eb004f0778004f06be004f05be0001
:101110004f04be0000000600889fbe000004780057
:10112000214580000100e00002003200010078004b
:101130000d00370031458000608a20000400370030
:10114000910f5400250036000180e80091009000c6
:101150000100e000faff3a0010003700920f54003f
:101160001e0036000280e800100178000200e00056
:10117000faff3a001101780031458000608a2000b2
:1011800004003700910f5400140036000180e8007d
:1011900091009000828f5000faff3a00594580007c
:1011a000888f54000100310088047800090078001d
:1011b0004c0007000000e00004003a00888f540053
:1011c000050032008904d100f5ff370009187800c6
:1011d0004bff0700d2ff37000000eb004f04be00ba
:1011e00000000600881f7800630440000800a1008a
:1011f0008000eb00800f540021003600e30f540004
:1012000001003e004800200008007800c2ff0700ef
:101210008000eb000000e000190032009000780030
:101220009101780064815100880f51000300310062
:101230001101900002087800070037000881400083
:1012400002087800910190001301980010017800c5
:101250001109140088087800100178000000eb00e4
:101260000200e00004003200920190000300e00060
:10127000010032000280e800204588008180e800fb
:10128000010078004f0478000000060003003700da
:10129000b0cf1000050032000201e90080017800a3
:1012a0000200e000faff3a000000050003007800a9
:1012b00000000600020037000304e00006003200d0
:1012c0000001780002007800b041780081cf510021
:1012d000f9ff3a00010037000001eb00020078003e
:1012e00000000600800078000000eb000100e00034
:1012f00005003400010078005dfc0700e10f4000ac
:1013000001003a000000eb00000006000400fa00b3
:10131000889fbe008a9fbe008c1f78000004780062
:1013200001067800f80d9000780090008085550047
:1013300008089000808555001808900080855500a9
:101340002808900080855500380890008085550059
:1013500048089000808555000002220090bf9f0041
:1013600000032300a0bf9f00081090000028a300e6
:1013700015003a000b00e000130034000b05780064
:101380008a047800e20f5500010036002900200091
:10139000c801900009017800ee80570058009000c5
:1013a00003000100500498000000e0008c003200af
:1013b0006808900009004000600c9800090555007d
:1013c0004240a900eeff3c00780190000200e000de
:1013d0000c003400c80190008c0078005800900088
:1013e00003000100500498008080eb000000e00042
:1013f0007c003200e80890007800900000804000f7
:10140000600c9800880c90000900e0001100340086
:1014100009057800e28f5400010036002a00200000
:10142000c80190000a017800ec8057005800900035
:1014300003000100500498000000e0006800320042
:10144000680890000a004000600c98008a845400ec
:10145000edff3700180990000200e0000c00340096
:10146000c8019000e80090005800900003000100bf
:10147000500498008080eb000000e000590032002a
:10148000e80890001808900000804000600c980068
:10149000a80c90000900e000110034000905780054
:1014a000e28f5400010036002a002000c80190009d
:1014b0000a017800ec8057005800900003000100fa
:1014c000500498000000e0004500320068089000d9
:1014d0000a004000600c98008a845400edff370039
:1014e000380990000200e0000e003400e80090008f
:1014f0001808900080804000c801900058009000bb
:1015000003000100500498008080eb000000e00020
:1015100034003200e8089000380890000080400055
:10152000600c9800c80c90000900e0001100340025
:1015300009057800e28f5400010036002a002000df
:10154000c80190000a017800ec8057005800900014
:1015500003000100500498000000e0002000320069
:10156000680890000a004000600c98008a845400cb
:10157000edff3700081090008000eb000028a3006a
:10158000180032000b00e000160034008b047800d5
:1015900009057800e28f5400010036002a0020007f
:1015a000c80190000a017800ee80570058009000b2
:1015b00003000100500498000000e0000800320021
:1015c000680890000a004000600c98008a8454006b
:1015d0004240a900eeff3c008000eb000100370014
:1015e0008080eb00010078004f0678004f05be00b8
:1015f0004f04be000080fa000000060001087800d9
:101600000000060000c0da000000060000c0da009a
:1016100000000600020ab900001bb9000200b80071
:0c16200081004200810043000000060031
:020000040000fa
:10162c002020000020570000656c0000636f000054
:10163c006d650000207400006f2000002020000069
:10164c000d00000020200000204700007261000007
:10165c0070650000746500006368000021200000c4
:08166c00202000000000000036
:020000040000fa
:101674000000fa00889fbe008a9fbe008c9fbe00b7
:1016840041098000f07f2e0000806000400988003e
:1016940041098000003020000100700040098800ea
:1016a40041098000f0f32f000080600040098800a9
:1016b40028a1a9002881a9002841a9000020200010
:1016c4009009880031e1a90031c1a8003181a80046
:1016d4003141a8003121a80031a1a8003101a9009d
:1016e40081098000f0f92f00008060000060a000f4
:1016f40080098800a1098000f0ff230000806000b9
:10170400a0098800a1098000000c200001007000dd
:10171400a0098800a1098000c00320000100700016
:10172400a0098800a00980003000b300a009880047
:101734002a61ef0010002000700988002de1a80044
:101744002dc1a8002d81a8002da1a8006109800049
:101754000060200001007000600988002d01a800cd
:1017640029e1a80000e224005f01070000e2240050
:101774005d010700820320000c0028004d002000ba
:10178400a00180008d0178008c007800a3018800fe
:1017940082087800a00188008020250052010700fb
:1017a400c20020000a0028004b002000a001800095
:1017b4008b0178008a007800a301880082087800f1
:1017c400a0018800803e200047010700620020003d
:1017d4000800280049002000a00180008901780049
:1017e40088007800a301880082087800a00188009e
:1017f40080bb20003c0107007500070010c0b30047
:101804004f06be004f05be004f04be000080fa0024
:10181400000006000400fa00000f78001107980089
:101824000a0037001e007800104078000000fb001a
:101834000000e000110032001e0078001040780023
:101844001e0fe80010000700000000001e009000ba
:1018540000f0a7000000ea000000ea004f00de00ec
:10186400004078009e0090008100e9001107980074
:101874000004e000ebff3a00010037000000000024
:101884000080fa00000006000200fa00889fbe00f3
:10189400004f78001e00fb00ea0f50000b003200de
:1018a400ea0f500003003c00e80f50000e00320025
:1018b40014003700ec0f500010003200ed0f500000
:1018c40010003a005f0007003e00370000c8bf0068
:1018d4000004e00002003a00f80007003900370075
:1018e400eb000700370037007500070000c2b300a3
:1018f400e5ff0700720007003200370034000700dc
:101904003000370001c8bf00f04f50001e003a00fd
:101914000168ef0000c8bf000004e0000e003a00b8
:10192400020c20000400280045002000a0018000d3
:101934008501780084007800a3018800820878007b
:10194400a001880080bb2000e700070010c0b3009e
:1019540000e8b7000c00370004082000020028004b
:1019640043002000a00180008302780082007800f8
:10197400a501880084087800a001880080bb2000ad
:10198400d90007000068ef001e01fb0028002800b2
:1019940049002000a00180008901780088007800b7
:1019a400a301880082087800a0018800803e2000fe
:1019b400cd00070001c8bf000040e80001e8b700ff
:1019c400000000004f04be000080fa000000060082
:1019d4000000fa00889fbe001300200000002800c9
:1019e40041002000a201800001027800000078007c
:1019f400a401880003087800a201880080bb2000ad
:101a0400b900070022002000080028004900200037
:101a1400a00180008901780088007800a301880073
:101a240082087800a001880080bb2000ae00070077
:101a34000068ef000168ef004f04be000080fa0068
:101a4400000006000000fa00048020001442780020
:101a54000404e0000c003a000408200002002800fe
:101a640043002000a00180008302780082007800f7
:101a7400a501880084087800a001880080bb2000ac
:101a8400990007000b003700030c20000000280019
:101a940041002000a20180000102780000007800cb
:101aa400a401880003087800a201880080bb2000fc
:101ab4008d0007000168ef000080fa0000000600b6
:101ac4000200fa0016802000164378000604e000a5
:101ad40026003a0000c8bf000004e0000e003a00ef
:101ae400020c20000400280045002000a001800012
:101af4008501780084007800a301880082087800ba
:101b0400a001880080bb20007700070010c0b3004c
:101b140000e8b7000c003700040820000200280089
:101b240043002000a0018000830278008200780036
:101b3400a501880084087800a001880080bb2000eb
:101b4400690007000068ef000040eb00004f7800d8
:101b540002003700180007001e4fe8001e407800fe
:101b6400ee4f5000fbff36001100370012802000ba
:101b7400124178000241e90082417800118020007e
:101b84008348780003012000000028004100200061
:101b9400a20180000102780000007800a4018800fe
:101ba40003087800a2018800803e20004e00070050
:101bb4000080fa00000006000000fa00889fbe00c2
:101bc4008a9fbe004301200000002800410020003d
:101bd400a20180000102780000007800a4018800be
:101be40003087800a2018800803e20003e00070020
:101bf40001c8bf000040e80001e8b70001c8bf0009
:101c0400f04f50001e003a000168ef0000c8bf000a
:101c14000004e0000e003a00020c20000a00280034
:101c24004b002000a00180008b0178008a0078001e
:101c3400a301880082087800a001880080bb2000ee
:101c44002900070010c0b30000e8b7000c003700fb
:101c5400020820000800280049002000a00180009c
:101c64008901780088007800a30188008208780040
:101c7400a001880080bb20001b0007000068ef0063
:101c84004f05be004f04be000080fa0000000600ad
:101c94000200fa000040eb00004f78000200370019
:101ca40087ff07001e4fe8001e407800ef4f5000ea
:101cb400fbff36000080fa00000006000200fa0074
:101cc4000040eb00004f780002003700baff070025
:101cd4001e4fe8001e407800ef4f5000fbff360017
:101ce4000080fa00000006000200fa00000f7800ed
:101cf40002003700000000001e0fe9001e007800fb
:101d04000000e000fbff3a000080fa00000006003b
:101d14000200fa00004f78001e4078000004e00042
:101d24000c003200f20020000400280045002000ce
:101d3400a00180008501780084007800a301880058
:101d440082087800a001880080bb2000e6ff07001d
:101d54000b003700c40020000200280043002000cc
:101d6400a00180008302780082007800a501880029
:101d740084087800a001880080bb2000daff0700f7
:081d84000080fa0000000600d7
:020000040000fa
:101d8c0000080000020000008000000002080000b3
:101d9c0088000000820000000100000000280800fc
:101dac002908280008280800280828000818080016
:101dbc000000000000000000000000000000000017
:101dcc0000000000000000000000000000020800fd
:101ddc00010150000851080050085000085008003c
:101dec005008400008000000000000000000000047
:101dfc0000000000000000000000000000000000d7
:101e0c000000020008020200780879000878080037
:101e1c0078087800087808006808000000000000c6
:101e2c0000000000000000000000000000000000a6
:101e3c00000000000000000002082a000852080000
:101e4c000000000000000000000000000000000086
:101e5c00a808000002000000800000008a080000b2
:101e6c001a00000082000000686a6c00747a4c0052
:101e7c000000010000020000040008000010000037
:101e8c00000020002b2d230030000000aa080000c9
:101e9c00020000008200000004000000a408000002
:101eac000400000080000000ac08000002000000ec
:081ebc0080000000000000009e
:020000040000fa
:101ec400f03fb1000180b10006003500ee030900c7
:101ed40000000000403fb1000180b100fbff3d0065
:101ee4001000b000203fb00002003500008009005f
:081ef4000000000000000600e0
:020000040000fa
:101efc000000fa00dcfd070060b1280085f907003e
:101f0c0080b22800801f780011fb07008f87e90042
:101f1c0000902000d1032000e7ff0700aafe070075
:041f2c00f5ff370086
:020000040000fa
:020000040015e5
:047e3000faffff0056
:020000040000fa
:020000040015e5
:047e3800feffff004a
:020000040000fa
:020000040015e5
:047e40009fffff00a1
:020000040000fa
:020000040015e5
:047e5000dfffff0051
:00000001FF
